{
  "_format": "hh-sol-artifact-1",
  "contractName": "QuizRewards",
  "sourceName": "contracts/QuizReward.sol",
  "abi": [
    {
      "inputs": [
        {
          "internalType": "address",
          "name": "_rewardToken",
          "type": "address"
        }
      ],
      "stateMutability": "nonpayable",
      "type": "constructor"
    },
    {
      "inputs": [
        {
          "internalType": "address",
          "name": "owner",
          "type": "address"
        }
      ],
      "name": "OwnableInvalidOwner",
      "type": "error"
    },
    {
      "inputs": [
        {
          "internalType": "address",
          "name": "account",
          "type": "address"
        }
      ],
      "name": "OwnableUnauthorizedAccount",
      "type": "error"
    },
    {
      "inputs": [],
      "name": "ReentrancyGuardReentrantCall",
      "type": "error"
    },
    {
      "anonymous": false,
      "inputs": [
        {
          "indexed": false,
          "internalType": "string",
          "name": "category",
          "type": "string"
        },
        {
          "indexed": false,
          "internalType": "uint256",
          "name": "oldReward",
          "type": "uint256"
        },
        {
          "indexed": false,
          "internalType": "uint256",
          "name": "newReward",
          "type": "uint256"
        }
      ],
      "name": "MaxRewardForCategoryUpdated",
      "type": "event"
    },
    {
      "anonymous": false,
      "inputs": [
        {
          "indexed": true,
          "internalType": "address",
          "name": "player",
          "type": "address"
        }
      ],
      "name": "NewPlayer",
      "type": "event"
    },
    {
      "anonymous": false,
      "inputs": [
        {
          "indexed": true,
          "internalType": "address",
          "name": "previousOwner",
          "type": "address"
        },
        {
          "indexed": true,
          "internalType": "address",
          "name": "newOwner",
          "type": "address"
        }
      ],
      "name": "OwnershipTransferred",
      "type": "event"
    },
    {
      "anonymous": false,
      "inputs": [
        {
          "indexed": true,
          "internalType": "address",
          "name": "player",
          "type": "address"
        },
        {
          "indexed": true,
          "internalType": "uint256",
          "name": "playIndex",
          "type": "uint256"
        },
        {
          "indexed": false,
          "internalType": "string",
          "name": "category",
          "type": "string"
        },
        {
          "indexed": false,
          "internalType": "uint8",
          "name": "score",
          "type": "uint8"
        },
        {
          "indexed": false,
          "internalType": "uint8",
          "name": "totalQuestions",
          "type": "uint8"
        },
        {
          "indexed": false,
          "internalType": "uint256",
          "name": "timestamp",
          "type": "uint256"
        }
      ],
      "name": "PlayRecorded",
      "type": "event"
    },
    {
      "anonymous": false,
      "inputs": [
        {
          "indexed": true,
          "internalType": "address",
          "name": "player",
          "type": "address"
        },
        {
          "indexed": true,
          "internalType": "uint256",
          "name": "playIndex",
          "type": "uint256"
        },
        {
          "indexed": false,
          "internalType": "uint256",
          "name": "amount",
          "type": "uint256"
        },
        {
          "indexed": false,
          "internalType": "address",
          "name": "token",
          "type": "address"
        }
      ],
      "name": "RewardClaimed",
      "type": "event"
    },
    {
      "anonymous": false,
      "inputs": [
        {
          "indexed": true,
          "internalType": "address",
          "name": "oldToken",
          "type": "address"
        },
        {
          "indexed": true,
          "internalType": "address",
          "name": "newToken",
          "type": "address"
        }
      ],
      "name": "RewardTokenUpdated",
      "type": "event"
    },
    {
      "inputs": [],
      "name": "CLAIM_COOLDOWN",
      "outputs": [
        {
          "internalType": "uint256",
          "name": "",
          "type": "uint256"
        }
      ],
      "stateMutability": "view",
      "type": "function"
    },
    {
      "inputs": [
        {
          "internalType": "uint256",
          "name": "",
          "type": "uint256"
        }
      ],
      "name": "allPlayers",
      "outputs": [
        {
          "internalType": "address",
          "name": "",
          "type": "address"
        }
      ],
      "stateMutability": "view",
      "type": "function"
    },
    {
      "inputs": [
        {
          "internalType": "address",
          "name": "",
          "type": "address"
        },
        {
          "internalType": "string",
          "name": "",
          "type": "string"
        }
      ],
      "name": "bestScorePerCategory",
      "outputs": [
        {
          "internalType": "uint256",
          "name": "",
          "type": "uint256"
        }
      ],
      "stateMutability": "view",
      "type": "function"
    },
    {
      "inputs": [],
      "name": "defaultMaxReward",
      "outputs": [
        {
          "internalType": "uint256",
          "name": "",
          "type": "uint256"
        }
      ],
      "stateMutability": "view",
      "type": "function"
    },
    {
      "inputs": [],
      "name": "getAllPlayers",
      "outputs": [
        {
          "internalType": "address[]",
          "name": "",
          "type": "address[]"
        }
      ],
      "stateMutability": "view",
      "type": "function"
    },
    {
      "inputs": [
        {
          "internalType": "address",
          "name": "player",
          "type": "address"
        },
        {
          "internalType": "string",
          "name": "category",
          "type": "string"
        }
      ],
      "name": "getLastClaimInfo",
      "outputs": [
        {
          "internalType": "string",
          "name": "_lastCategory",
          "type": "string"
        },
        {
          "internalType": "uint256",
          "name": "_lastClaimTimestamp",
          "type": "uint256"
        },
        {
          "internalType": "uint256",
          "name": "_cooldownRemaining",
          "type": "uint256"
        }
      ],
      "stateMutability": "view",
      "type": "function"
    },
    {
      "inputs": [
        {
          "internalType": "address",
          "name": "player",
          "type": "address"
        },
        {
          "internalType": "uint256",
          "name": "index",
          "type": "uint256"
        }
      ],
      "name": "getPlay",
      "outputs": [
        {
          "internalType": "string",
          "name": "category",
          "type": "string"
        },
        {
          "internalType": "uint8",
          "name": "score",
          "type": "uint8"
        },
        {
          "internalType": "uint8",
          "name": "totalQuestions",
          "type": "uint8"
        },
        {
          "internalType": "uint256",
          "name": "timestamp",
          "type": "uint256"
        }
      ],
      "stateMutability": "view",
      "type": "function"
    },
    {
      "inputs": [
        {
          "internalType": "address",
          "name": "player",
          "type": "address"
        }
      ],
      "name": "getPlayCount",
      "outputs": [
        {
          "internalType": "uint256",
          "name": "",
          "type": "uint256"
        }
      ],
      "stateMutability": "view",
      "type": "function"
    },
    {
      "inputs": [
        {
          "internalType": "address",
          "name": "player",
          "type": "address"
        }
      ],
      "name": "getPlayerSummary",
      "outputs": [
        {
          "internalType": "uint256",
          "name": "_totalScore",
          "type": "uint256"
        },
        {
          "internalType": "uint256",
          "name": "_totalClaimedScore",
          "type": "uint256"
        },
        {
          "internalType": "uint256",
          "name": "_totalClaimedAmount",
          "type": "uint256"
        },
        {
          "internalType": "uint256",
          "name": "_playsCount",
          "type": "uint256"
        }
      ],
      "stateMutability": "view",
      "type": "function"
    },
    {
      "inputs": [],
      "name": "getPlayersCount",
      "outputs": [
        {
          "internalType": "uint256",
          "name": "",
          "type": "uint256"
        }
      ],
      "stateMutability": "view",
      "type": "function"
    },
    {
      "inputs": [
        {
          "internalType": "address",
          "name": "",
          "type": "address"
        },
        {
          "internalType": "string",
          "name": "",
          "type": "string"
        }
      ],
      "name": "lastClaimTimestampForCategory",
      "outputs": [
        {
          "internalType": "uint256",
          "name": "",
          "type": "uint256"
        }
      ],
      "stateMutability": "view",
      "type": "function"
    },
    {
      "inputs": [
        {
          "internalType": "address",
          "name": "",
          "type": "address"
        }
      ],
      "name": "lastClaimedCategory",
      "outputs": [
        {
          "internalType": "string",
          "name": "",
          "type": "string"
        }
      ],
      "stateMutability": "view",
      "type": "function"
    },
    {
      "inputs": [
        {
          "internalType": "string",
          "name": "",
          "type": "string"
        }
      ],
      "name": "maxRewardForCategory",
      "outputs": [
        {
          "internalType": "uint256",
          "name": "",
          "type": "uint256"
        }
      ],
      "stateMutability": "view",
      "type": "function"
    },
    {
      "inputs": [],
      "name": "owner",
      "outputs": [
        {
          "internalType": "address",
          "name": "",
          "type": "address"
        }
      ],
      "stateMutability": "view",
      "type": "function"
    },
    {
      "inputs": [
        {
          "internalType": "string",
          "name": "category",
          "type": "string"
        },
        {
          "internalType": "uint8",
          "name": "score",
          "type": "uint8"
        },
        {
          "internalType": "uint8",
          "name": "totalQuestions",
          "type": "uint8"
        }
      ],
      "name": "recordPlayAndClaim",
      "outputs": [],
      "stateMutability": "nonpayable",
      "type": "function"
    },
    {
      "inputs": [],
      "name": "renounceOwnership",
      "outputs": [],
      "stateMutability": "nonpayable",
      "type": "function"
    },
    {
      "inputs": [],
      "name": "rewardToken",
      "outputs": [
        {
          "internalType": "address",
          "name": "",
          "type": "address"
        }
      ],
      "stateMutability": "view",
      "type": "function"
    },
    {
      "inputs": [
        {
          "internalType": "uint256",
          "name": "amount",
          "type": "uint256"
        }
      ],
      "name": "setDefaultMaxReward",
      "outputs": [],
      "stateMutability": "nonpayable",
      "type": "function"
    },
    {
      "inputs": [
        {
          "internalType": "string",
          "name": "category",
          "type": "string"
        },
        {
          "internalType": "uint256",
          "name": "amount",
          "type": "uint256"
        }
      ],
      "name": "setMaxRewardForCategory",
      "outputs": [],
      "stateMutability": "nonpayable",
      "type": "function"
    },
    {
      "inputs": [
        {
          "internalType": "address",
          "name": "_token",
          "type": "address"
        }
      ],
      "name": "setRewardToken",
      "outputs": [],
      "stateMutability": "nonpayable",
      "type": "function"
    },
    {
      "inputs": [
        {
          "internalType": "address",
          "name": "",
          "type": "address"
        }
      ],
      "name": "totalClaimedAmount",
      "outputs": [
        {
          "internalType": "uint256",
          "name": "",
          "type": "uint256"
        }
      ],
      "stateMutability": "view",
      "type": "function"
    },
    {
      "inputs": [
        {
          "internalType": "address",
          "name": "",
          "type": "address"
        }
      ],
      "name": "totalClaimedScore",
      "outputs": [
        {
          "internalType": "uint256",
          "name": "",
          "type": "uint256"
        }
      ],
      "stateMutability": "view",
      "type": "function"
    },
    {
      "inputs": [
        {
          "internalType": "address",
          "name": "",
          "type": "address"
        }
      ],
      "name": "totalScore",
      "outputs": [
        {
          "internalType": "uint256",
          "name": "",
          "type": "uint256"
        }
      ],
      "stateMutability": "view",
      "type": "function"
    },
    {
      "inputs": [
        {
          "internalType": "address",
          "name": "newOwner",
          "type": "address"
        }
      ],
      "name": "transferOwnership",
      "outputs": [],
      "stateMutability": "nonpayable",
      "type": "function"
    },
    {
      "inputs": [
        {
          "internalType": "address payable",
          "name": "to",
          "type": "address"
        },
        {
          "internalType": "uint256",
          "name": "amount",
          "type": "uint256"
        }
      ],
      "name": "withdrawNative",
      "outputs": [],
      "stateMutability": "nonpayable",
      "type": "function"
    },
    {
      "inputs": [
        {
          "internalType": "address",
          "name": "tokenAddr",
          "type": "address"
        },
        {
          "internalType": "address",
          "name": "to",
          "type": "address"
        },
        {
          "internalType": "uint256",
          "name": "amount",
          "type": "uint256"
        }
      ],
      "name": "withdrawToken",
      "outputs": [],
      "stateMutability": "nonpayable",
      "type": "function"
    },
    {
      "stateMutability": "payable",
      "type": "receive"
    }
  ],
  "bytecode": "0x60806040526509184e72a00060055534801561001a57600080fd5b50604051612142380380612142833981016040819052610039916100e2565b338061005f57604051631e4fbdf760e01b81526000600482015260240160405180910390fd5b61006881610092565b5060018055600280546001600160a01b0319166001600160a01b0392909216919091179055610112565b600080546001600160a01b038381166001600160a01b0319831681178455604051919092169283917f8be0079c531659141344cd1fd0a4f28419497f9722a3daafe3b4186f6b6457e09190a35050565b6000602082840312156100f457600080fd5b81516001600160a01b038116811461010b57600080fd5b9392505050565b612021806101216000396000f3fe6080604052600436106101855760003560e01c80638da5cb5b116100d1578063da85cd3e1161008a578063f2fde38b11610064578063f2fde38b1461055c578063f40aee841461057c578063f7c618c1146105a9578063fddb97ea146105c957600080fd5b8063da85cd3e1461048b578063dc96d5fc146104c3578063efa1c4821461053a57600080fd5b80638da5cb5b1461039057806391f3a1b0146103ae57806392bc3163146103f75780639566404614610417578063a76594bf14610460578063c23258031461047557600080fd5b806337c909ec1161013e578063715018a611610118578063715018a61461030157806384eda662146103165780638740236b146103435780638aee81271461037057600080fd5b806337c909ec1461029b5780633d016c0d146102b257806344bb2aee146102e157600080fd5b806301e33667146101915780630544ce5e146101b357806307b18bde146101f0578063127ba5eb14610210578063128a345714610240578063205cd92a1461027b57600080fd5b3661018c57005b600080fd5b34801561019d57600080fd5b506101b16101ac3660046117e6565b6105ff565b005b3480156101bf57600080fd5b506101d36101ce366004611827565b610778565b6040516001600160a01b0390911681526020015b60405180910390f35b3480156101fc57600080fd5b506101b161020b366004611840565b6107a2565b34801561021c57600080fd5b5061023061022b366004611840565b61088b565b6040516101e794939291906118bc565b34801561024c57600080fd5b5061026d61025b3660046118ec565b600c6020526000908152604090205481565b6040519081526020016101e7565b34801561028757600080fd5b506101b161029636600461196f565b6109e5565b3480156102a757600080fd5b5061026d6201518081565b3480156102be57600080fd5b506102d26102cd3660046119d4565b61124f565b6040516101e793929190611a29565b3480156102ed57600080fd5b506101b16102fc366004611a4e565b611374565b34801561030d57600080fd5b506101b1611409565b34801561032257600080fd5b5061026d6103313660046118ec565b60096020526000908152604090205481565b34801561034f57600080fd5b5061026d61035e3660046118ec565b600d6020526000908152604090205481565b34801561037c57600080fd5b506101b161038b3660046118ec565b61141d565b34801561039c57600080fd5b506000546001600160a01b03166101d3565b3480156103ba57600080fd5b5061026d6103c9366004611b3f565b6003602090815260009283526040909220815180830184018051928152908401929093019190912091525481565b34801561040357600080fd5b506101b1610412366004611827565b611477565b34801561042357600080fd5b5061026d610432366004611b3f565b6008602090815260009283526040909220815180830184018051928152908401929093019190912091525481565b34801561046c57600080fd5b50600a5461026d565b34801561048157600080fd5b5061026d60055481565b34801561049757600080fd5b5061026d6104a6366004611b8f565b805160208183018101805160068252928201919093012091525481565b3480156104cf57600080fd5b5061051a6104de3660046118ec565b6001600160a01b0316600090815260096020908152604080832054600d835281842054600c845282852054600790945291909320549293909290565b6040805194855260208501939093529183015260608201526080016101e7565b34801561054657600080fd5b5061054f611484565b6040516101e79190611bcc565b34801561056857600080fd5b506101b16105773660046118ec565b6114e6565b34801561058857600080fd5b5061059c6105973660046118ec565b611524565b6040516101e79190611c18565b3480156105b557600080fd5b506002546101d3906001600160a01b031681565b3480156105d557600080fd5b5061026d6105e43660046118ec565b6001600160a01b031660009081526007602052604090205490565b6106076115be565b6040516370a0823160e01b8152306004820152839082906001600160a01b038316906370a0823190602401602060405180830381865afa15801561064f573d6000803e3d6000fd5b505050506040513d601f19601f820116820180604052508101906106739190611c2b565b10156106bb5760405162461bcd60e51b815260206004820152601260248201527134b739bab33334b1b4b2b73a103a37b5b2b760711b60448201526064015b60405180910390fd5b60405163a9059cbb60e01b81526001600160a01b0384811660048301526024820184905282169063a9059cbb906044016020604051808303816000875af115801561070a573d6000803e3d6000fd5b505050506040513d601f19601f8201168201806040525081019061072e9190611c44565b6107725760405162461bcd60e51b81526020600482015260156024820152741d1bdad95b881d1c985b9cd9995c8819985a5b1959605a1b60448201526064016106b2565b50505050565b600a818154811061078857600080fd5b6000918252602090912001546001600160a01b0316905081565b6107aa6115be565b804710156107f15760405162461bcd60e51b8152602060048201526014602482015273696e73756666696369656e742062616c616e636560601b60448201526064016106b2565b6000826001600160a01b03168260405160006040518083038185875af1925050503d806000811461083e576040519150601f19603f3d011682016040523d82523d6000602084013e610843565b606091505b50509050806108865760405162461bcd60e51b815260206004820152600f60248201526e1dda5d1a191c985dc819985a5b1959608a1b60448201526064016106b2565b505050565b6001600160a01b038216600090815260076020526040812054606091908190819085106108ef5760405162461bcd60e51b8152602060048201526012602482015271696e646578206f7574206f662072616e676560701b60448201526064016106b2565b6001600160a01b038616600090815260076020526040812080548790811061091957610919611c66565b60009182526020909120600390910201600181015460028201548254929350839260ff808416936101009004169190849061095390611c7c565b80601f016020809104026020016040519081016040528092919081815260200182805461097f90611c7c565b80156109cc5780601f106109a1576101008083540402835291602001916109cc565b820191906000526020600020905b8154815290600101906020018083116109af57829003601f168201915b5050505050935094509450945094505092959194509250565b6109ed6115eb565b82610a2e5760405162461bcd60e51b815260206004820152601160248201527018d85d1959dbdc9e481c995c5d5a5c9959607a1b60448201526064016106b2565b60008160ff1611610a765760405162461bcd60e51b81526020600482015260126024820152710746f74616c5175657374696f6e73203e20360741b60448201526064016106b2565b8060ff168260ff161115610acc5760405162461bcd60e51b815260206004820152601760248201527f73636f7265203c3d20746f74616c5175657374696f6e7300000000000000000060448201526064016106b2565b336000908152600360205260408082209051610aeb9087908790611cb6565b908152604051908190036020019020549050610b0a6201518082611cdc565b421015610b6e5760405162461bcd60e51b815260206004820152602c60248201527f436f6f6c646f776e3a2063616e6e6f7420636c61696d20666f7220746869732060448201526b18d85d1959dbdc9e481e595d60a21b60648201526084016106b2565b600060068686604051610b82929190611cb6565b908152602001604051809103902054905080600003610ba057506005545b60008111610be05760405162461bcd60e51b815260206004820152600d60248201526c1b9bc81c995dd85c99081cd95d609a1b60448201526064016106b2565b60008360ff168560ff1683610bf59190611cef565b610bff9190611d06565b905060008111610c515760405162461bcd60e51b815260206004820152601860248201527f6e6f2072657761726420666f7220746869732073636f7265000000000000000060448201526064016106b2565b6040805160a06020601f8a018190040282018101909252608081018881526000928291908b908b9081908501838280828437600092018290525093855250505060ff808a166020808501919091529089166040808501919091524260609094019390935233825260078152918120805460018101825590825291902082519293508392600390920201908190610ce79082611d76565b506020828101516001808401805460408088015160ff9081166101000261ffff199093169516949094171790556060909401516002909301929092553360009081526007909152908120549091610d3d91611e35565b3360009081526008602052604090819020905191925090610d61908b908b90611cb6565b9081526020016040518091039020548760ff161115610db1573360009081526008602052604090819020905160ff89169190610da0908c908c90611cb6565b908152604051908190036020019020555b336000908152600960205260408120805460ff8a169290610dd3908490611cdc565b9091555050336000908152600d60205260408120805460ff8a169290610dfa908490611cdc565b9091555050336000908152600c602052604081208054859290610e1e908490611cdc565b909155505033600090815260036020526040908190209051429190610e46908c908c90611cb6565b908152604080516020928190038301902092909255336000908152600490915220610e72898b83611e48565b50336000908152600b602052604090205460ff16610f0b57336000818152600b6020526040808220805460ff19166001908117909155600a8054918201815583527fc65a7bb8d6351c1cf70c95a316cc6a92839c986682d98bc35f958f4883f9d2a80180546001600160a01b03191684179055517f52e92d4898337244a39bd42674ac561eadfd3959e947deec1c0ab82dd58b5a759190a25b80336001600160a01b03167fba512ea267f82d8580c97901836fd3db7948f1bc1eaa3f50f329c2fb8213dde78b8b8b8b42604051610f4d959493929190611f31565b60405180910390a36002546001600160a01b0316611083576000610f7084611615565b604051602001610f809190611f63565b6040516020818303038152906040529050834710158190610fb45760405162461bcd60e51b81526004016106b29190611c18565b50604051600090339086908381818185875af1925050503d8060008114610ff7576040519150601f19603f3d011682016040523d82523d6000602084013e610ffc565b606091505b505090508061103f5760405162461bcd60e51b815260206004820152600f60248201526e1d1c985b9cd9995c8819985a5b1959608a1b60448201526064016106b2565b6040805186815260006020820152849133917f4bbe6b9abde3c57178a72bffd1868d868a0562c805a8effd250d9f76a2bd8280910160405180910390a35050611241565b6002546040516370a0823160e01b81523060048201526001600160a01b0390911690849082906370a0823190602401602060405180830381865afa1580156110cf573d6000803e3d6000fd5b505050506040513d601f19601f820116820180604052508101906110f39190611c2b565b10156111415760405162461bcd60e51b815260206004820152601a60248201527f696e73756666696369656e7420746f6b656e2062616c616e636500000000000060448201526064016106b2565b60405163a9059cbb60e01b8152336004820152602481018590526001600160a01b0382169063a9059cbb906044016020604051808303816000875af115801561118e573d6000803e3d6000fd5b505050506040513d601f19601f820116820180604052508101906111b29190611c44565b6111f65760405162461bcd60e51b81526020600482015260156024820152741d1bdad95b881d1c985b9cd9995c8819985a5b1959605a1b60448201526064016106b2565b600254604080518681526001600160a01b039092166020830152839133917f4bbe6b9abde3c57178a72bffd1868d868a0562c805a8effd250d9f76a2bd8280910160405180910390a3505b505050505061077260018055565b6001600160a01b0383166000908152600460205260408120805460609291829161127890611c7c565b80601f01602080910402602001604051908101604052809291908181526020018280546112a490611c7c565b80156112f15780601f106112c6576101008083540402835291602001916112f1565b820191906000526020600020905b8154815290600101906020018083116112d457829003601f168201915b5050506001600160a01b0389166000908152600360205260409081902090519396509261132392508891508790611cb6565b9081526040519081900360200190205491506113426201518083611cdc565b42106113505750600061136b565b4261135e6201518084611cdc565b6113689190611e35565b90505b93509350939050565b61137c6115be565b600060068484604051611390929190611cb6565b908152602001604051809103902054905081600685856040516113b4929190611cb6565b9081526020016040518091039020819055507f79c2fb454d146f3fa19f308d13af8f7672feddca46471c8b8af9555b932cf8a3848483856040516113fb9493929190611fc4565b60405180910390a150505050565b6114116115be565b61141b60006116a8565b565b6114256115be565b600280546001600160a01b038381166001600160a01b0319831681179093556040519116919082907f906ff2422a6ffa134f2d7ccaffd446bc0c583a5cb6615749b4b2836942a5fea890600090a35050565b61147f6115be565b600555565b6060600a8054806020026020016040519081016040528092919081815260200182805480156114dc57602002820191906000526020600020905b81546001600160a01b031681526001909101906020018083116114be575b5050505050905090565b6114ee6115be565b6001600160a01b03811661151857604051631e4fbdf760e01b8152600060048201526024016106b2565b611521816116a8565b50565b6004602052600090815260409020805461153d90611c7c565b80601f016020809104026020016040519081016040528092919081815260200182805461156990611c7c565b80156115b65780601f1061158b576101008083540402835291602001916115b6565b820191906000526020600020905b81548152906001019060200180831161159957829003601f168201915b505050505081565b6000546001600160a01b0316331461141b5760405163118cdaa760e01b81523360048201526024016106b2565b60026001540361160e57604051633ee5aeb560e01b815260040160405180910390fd5b6002600155565b60606000611622836116f8565b600101905060008167ffffffffffffffff81111561164257611642611a9a565b6040519080825280601f01601f19166020018201604052801561166c576020820181803683370190505b5090508181016020015b600019016f181899199a1a9b1b9c1cb0b131b232b360811b600a86061a8153600a850494508461167657509392505050565b600080546001600160a01b038381166001600160a01b0319831681178455604051919092169283917f8be0079c531659141344cd1fd0a4f28419497f9722a3daafe3b4186f6b6457e09190a35050565b60008072184f03e93ff9f4daa797ed6e38ed64bf6a1f0160401b83106117375772184f03e93ff9f4daa797ed6e38ed64bf6a1f0160401b830492506040015b6d04ee2d6d415b85acef81000000008310611763576d04ee2d6d415b85acef8100000000830492506020015b662386f26fc10000831061178157662386f26fc10000830492506010015b6305f5e1008310611799576305f5e100830492506008015b61271083106117ad57612710830492506004015b606483106117bf576064830492506002015b600a83106117cb576001015b92915050565b6001600160a01b038116811461152157600080fd5b6000806000606084860312156117fb57600080fd5b8335611806816117d1565b92506020840135611816816117d1565b929592945050506040919091013590565b60006020828403121561183957600080fd5b5035919050565b6000806040838503121561185357600080fd5b823561185e816117d1565b946020939093013593505050565b60005b8381101561188757818101518382015260200161186f565b50506000910152565b600081518084526118a881602086016020860161186c565b601f01601f19169290920160200192915050565b6080815260006118cf6080830187611890565b60ff95861660208401529390941660408201526060015292915050565b6000602082840312156118fe57600080fd5b8135611909816117d1565b9392505050565b60008083601f84011261192257600080fd5b50813567ffffffffffffffff81111561193a57600080fd5b60208301915083602082850101111561195257600080fd5b9250929050565b803560ff8116811461196a57600080fd5b919050565b6000806000806060858703121561198557600080fd5b843567ffffffffffffffff81111561199c57600080fd5b6119a887828801611910565b90955093506119bb905060208601611959565b91506119c960408601611959565b905092959194509250565b6000806000604084860312156119e957600080fd5b83356119f4816117d1565b9250602084013567ffffffffffffffff811115611a1057600080fd5b611a1c86828701611910565b9497909650939450505050565b606081526000611a3c6060830186611890565b60208301949094525060400152919050565b600080600060408486031215611a6357600080fd5b833567ffffffffffffffff811115611a7a57600080fd5b611a8686828701611910565b909790965060209590950135949350505050565b634e487b7160e01b600052604160045260246000fd5b600082601f830112611ac157600080fd5b813567ffffffffffffffff811115611adb57611adb611a9a565b604051601f8201601f19908116603f0116810167ffffffffffffffff81118282101715611b0a57611b0a611a9a565b604052818152838201602001851015611b2257600080fd5b816020850160208301376000918101602001919091529392505050565b60008060408385031215611b5257600080fd5b8235611b5d816117d1565b9150602083013567ffffffffffffffff811115611b7957600080fd5b611b8585828601611ab0565b9150509250929050565b600060208284031215611ba157600080fd5b813567ffffffffffffffff811115611bb857600080fd5b611bc484828501611ab0565b949350505050565b602080825282518282018190526000918401906040840190835b81811015611c0d5783516001600160a01b0316835260209384019390920191600101611be6565b509095945050505050565b6020815260006119096020830184611890565b600060208284031215611c3d57600080fd5b5051919050565b600060208284031215611c5657600080fd5b8151801515811461190957600080fd5b634e487b7160e01b600052603260045260246000fd5b600181811c90821680611c9057607f821691505b602082108103611cb057634e487b7160e01b600052602260045260246000fd5b50919050565b8183823760009101908152919050565b634e487b7160e01b600052601160045260246000fd5b808201808211156117cb576117cb611cc6565b80820281158282048414176117cb576117cb611cc6565b600082611d2357634e487b7160e01b600052601260045260246000fd5b500490565b601f82111561088657806000526020600020601f840160051c81016020851015611d4f5750805b601f840160051c820191505b81811015611d6f5760008155600101611d5b565b5050505050565b815167ffffffffffffffff811115611d9057611d90611a9a565b611da481611d9e8454611c7c565b84611d28565b6020601f821160018114611dd85760008315611dc05750848201515b600019600385901b1c1916600184901b178455611d6f565b600084815260208120601f198516915b82811015611e085787850151825560209485019460019092019101611de8565b5084821015611e265786840151600019600387901b60f8161c191681555b50505050600190811b01905550565b818103818111156117cb576117cb611cc6565b67ffffffffffffffff831115611e6057611e60611a9a565b611e7483611e6e8354611c7c565b83611d28565b6000601f841160018114611ea85760008515611e905750838201355b600019600387901b1c1916600186901b178355611d6f565b600083815260209020601f19861690835b82811015611ed95786850135825560209485019460019092019101611eb9565b5086821015611ef65760001960f88860031b161c19848701351681555b505060018560011b0183555050505050565b81835281816020850137506000828201602090810191909152601f909101601f19169091010190565b608081526000611f45608083018789611f08565b60ff9586166020840152939094166040820152606001529392505050565b7f696e73756666696369656e742062616c616e63653a20636f6e7472616374206e815264032b2b239960dd1b602082015260008251611fa981602585016020870161186c565b632077656960e01b6025939091019283015250602901919050565b606081526000611fd8606083018688611f08565b602083019490945250604001529291505056fea26469706673582212209a07a1b4455fb0ea1bdd617c13183ddcf0bb1dff00a04e8c138c664f34a03fa364736f6c634300081c0033",
  "linkReferences": {},
  "deployedLinkReferences": {}
}