{
  "_format": "hh-sol-artifact-1",
  "contractName": "ScoreReward",
  "sourceName": "contracts/ScoreReward.sol",
  "abi": [
    {
      "inputs": [],
      "stateMutability": "nonpayable",
      "type": "constructor"
    },
    {
      "inputs": [],
      "name": "ClaimTooSoon",
      "type": "error"
    },
    {
      "inputs": [],
      "name": "InvalidScore",
      "type": "error"
    },
    {
      "inputs": [],
      "name": "NotEnoughCelo",
      "type": "error"
    },
    {
      "inputs": [],
      "name": "NotOwner",
      "type": "error"
    },
    {
      "anonymous": false,
      "inputs": [
        {
          "indexed": true,
          "internalType": "address",
          "name": "user",
          "type": "address"
        },
        {
          "indexed": false,
          "internalType": "uint256",
          "name": "score",
          "type": "uint256"
        },
        {
          "indexed": false,
          "internalType": "uint256",
          "name": "reward",
          "type": "uint256"
        }
      ],
      "name": "RewardClaimed",
      "type": "event"
    },
    {
      "inputs": [],
      "name": "baseReward",
      "outputs": [
        {
          "internalType": "uint256",
          "name": "",
          "type": "uint256"
        }
      ],
      "stateMutability": "view",
      "type": "function"
    },
    {
      "inputs": [
        {
          "internalType": "uint256",
          "name": "score",
          "type": "uint256"
        }
      ],
      "name": "claimReward",
      "outputs": [],
      "stateMutability": "nonpayable",
      "type": "function"
    },
    {
      "inputs": [
        {
          "internalType": "uint256",
          "name": "",
          "type": "uint256"
        }
      ],
      "name": "claimedAddresses",
      "outputs": [
        {
          "internalType": "address",
          "name": "",
          "type": "address"
        }
      ],
      "stateMutability": "view",
      "type": "function"
    },
    {
      "inputs": [],
      "name": "getBalance",
      "outputs": [
        {
          "internalType": "uint256",
          "name": "",
          "type": "uint256"
        }
      ],
      "stateMutability": "view",
      "type": "function"
    },
    {
      "inputs": [],
      "name": "getClaimedAddresses",
      "outputs": [
        {
          "internalType": "address[]",
          "name": "",
          "type": "address[]"
        }
      ],
      "stateMutability": "view",
      "type": "function"
    },
    {
      "inputs": [],
      "name": "getTotalClaimCount",
      "outputs": [
        {
          "internalType": "uint256",
          "name": "",
          "type": "uint256"
        }
      ],
      "stateMutability": "view",
      "type": "function"
    },
    {
      "inputs": [],
      "name": "getTotalRewardsDistributed",
      "outputs": [
        {
          "internalType": "uint256",
          "name": "",
          "type": "uint256"
        }
      ],
      "stateMutability": "view",
      "type": "function"
    },
    {
      "inputs": [
        {
          "internalType": "address",
          "name": "",
          "type": "address"
        }
      ],
      "name": "lastClaimedAt",
      "outputs": [
        {
          "internalType": "uint256",
          "name": "",
          "type": "uint256"
        }
      ],
      "stateMutability": "view",
      "type": "function"
    },
    {
      "inputs": [],
      "name": "owner",
      "outputs": [
        {
          "internalType": "address",
          "name": "",
          "type": "address"
        }
      ],
      "stateMutability": "view",
      "type": "function"
    },
    {
      "inputs": [
        {
          "internalType": "uint256",
          "name": "newReward",
          "type": "uint256"
        }
      ],
      "name": "setBaseReward",
      "outputs": [],
      "stateMutability": "nonpayable",
      "type": "function"
    },
    {
      "inputs": [],
      "name": "totalClaimCount",
      "outputs": [
        {
          "internalType": "uint256",
          "name": "",
          "type": "uint256"
        }
      ],
      "stateMutability": "view",
      "type": "function"
    },
    {
      "inputs": [],
      "name": "totalRewardsDistributed",
      "outputs": [
        {
          "internalType": "uint256",
          "name": "",
          "type": "uint256"
        }
      ],
      "stateMutability": "view",
      "type": "function"
    },
    {
      "inputs": [],
      "name": "withdraw",
      "outputs": [],
      "stateMutability": "nonpayable",
      "type": "function"
    },
    {
      "stateMutability": "payable",
      "type": "receive"
    }
  ],
  "bytecode": "0x60806040526509184e72a00060015534801561001a57600080fd5b50336000806101000a81548173ffffffffffffffffffffffffffffffffffffffff021916908373ffffffffffffffffffffffffffffffffffffffff160217905550610c1a8061006a6000396000f3fe6080604052600436106100c65760003560e01c80633ccfd60b1161007f5780638da5cb5b116100595780638da5cb5b14610263578063ae169a501461028e578063e7c52d44146102b7578063ee172546146102e2576100cd565b80633ccfd60b146101f6578063658115bf1461020d57806376ad03bc14610238576100cd565b80630373a23a146100d257806308f452bc146100fb5780630e90c1591461012657806312065fe01461016357806326a40c991461018e5780633b39ccc9146101cb576100cd565b366100cd57005b600080fd5b3480156100de57600080fd5b506100f960048036038101906100f49190610896565b61030d565b005b34801561010757600080fd5b5061011061039c565b60405161011d91906109b3565b60405180910390f35b34801561013257600080fd5b5061014d60048036038101906101489190610896565b61042a565b60405161015a91906109e4565b60405180910390f35b34801561016f57600080fd5b50610178610469565b6040516101859190610a0e565b60405180910390f35b34801561019a57600080fd5b506101b560048036038101906101b09190610a55565b610471565b6040516101c29190610a0e565b60405180910390f35b3480156101d757600080fd5b506101e0610489565b6040516101ed9190610a0e565b60405180910390f35b34801561020257600080fd5b5061020b61048f565b005b34801561021957600080fd5b5061022261057d565b60405161022f9190610a0e565b60405180910390f35b34801561024457600080fd5b5061024d610587565b60405161025a9190610a0e565b60405180910390f35b34801561026f57600080fd5b5061027861058d565b60405161028591906109e4565b60405180910390f35b34801561029a57600080fd5b506102b560048036038101906102b09190610896565b6105b1565b005b3480156102c357600080fd5b506102cc61084b565b6040516102d99190610a0e565b60405180910390f35b3480156102ee57600080fd5b506102f7610855565b6040516103049190610a0e565b60405180910390f35b60008054906101000a900473ffffffffffffffffffffffffffffffffffffffff1673ffffffffffffffffffffffffffffffffffffffff163373ffffffffffffffffffffffffffffffffffffffff1614610392576040517f30cd747100000000000000000000000000000000000000000000000000000000815260040160405180910390fd5b8060018190555050565b6060600580548060200260200160405190810160405280929190818152602001828054801561042057602002820191906000526020600020905b8160009054906101000a900473ffffffffffffffffffffffffffffffffffffffff1673ffffffffffffffffffffffffffffffffffffffff16815260200190600101908083116103d6575b5050505050905090565b6005818154811061043a57600080fd5b906000526020600020016000915054906101000a900473ffffffffffffffffffffffffffffffffffffffff1681565b600047905090565b60046020528060005260406000206000915090505481565b60035481565b60008054906101000a900473ffffffffffffffffffffffffffffffffffffffff1673ffffffffffffffffffffffffffffffffffffffff163373ffffffffffffffffffffffffffffffffffffffff1614610514576040517f30cd747100000000000000000000000000000000000000000000000000000000815260040160405180910390fd5b60008054906101000a900473ffffffffffffffffffffffffffffffffffffffff1673ffffffffffffffffffffffffffffffffffffffff166108fc479081150290604051600060405180830381858888f1935050505015801561057a573d6000803e3d6000fd5b50565b6000600354905090565b60015481565b60008054906101000a900473ffffffffffffffffffffffffffffffffffffffff1681565b60008114806105c05750600a81115b156105f7576040517f1556136500000000000000000000000000000000000000000000000000000000815260040160405180910390fd5b62015180600460003373ffffffffffffffffffffffffffffffffffffffff1673ffffffffffffffffffffffffffffffffffffffff16815260200190815260200160002054426106469190610ab1565b101561067e576040517ff7700e6300000000000000000000000000000000000000000000000000000000815260040160405180910390fd5b6000600a826001546106909190610ae5565b61069a9190610b56565b9050804710156106d6576040517f7612fe2400000000000000000000000000000000000000000000000000000000815260040160405180910390fd5b42600460003373ffffffffffffffffffffffffffffffffffffffff1673ffffffffffffffffffffffffffffffffffffffff16815260200190815260200160002081905550806002600082825461072c9190610b87565b925050819055506001600360008282546107469190610b87565b925050819055506005339080600181540180825580915050600190039060005260206000200160009091909190916101000a81548173ffffffffffffffffffffffffffffffffffffffff021916908373ffffffffffffffffffffffffffffffffffffffff1602179055503373ffffffffffffffffffffffffffffffffffffffff166108fc829081150290604051600060405180830381858888f193505050501580156107f6573d6000803e3d6000fd5b503373ffffffffffffffffffffffffffffffffffffffff167ff01da32686223933d8a18a391060918c7f11a3648639edd87ae013e2e2731743838360405161083f929190610bbb565b60405180910390a25050565b6000600254905090565b60025481565b600080fd5b6000819050919050565b61087381610860565b811461087e57600080fd5b50565b6000813590506108908161086a565b92915050565b6000602082840312156108ac576108ab61085b565b5b60006108ba84828501610881565b91505092915050565b600081519050919050565b600082825260208201905092915050565b6000819050602082019050919050565b600073ffffffffffffffffffffffffffffffffffffffff82169050919050565b600061091a826108ef565b9050919050565b61092a8161090f565b82525050565b600061093c8383610921565b60208301905092915050565b6000602082019050919050565b6000610960826108c3565b61096a81856108ce565b9350610975836108df565b8060005b838110156109a657815161098d8882610930565b975061099883610948565b925050600181019050610979565b5085935050505092915050565b600060208201905081810360008301526109cd8184610955565b905092915050565b6109de8161090f565b82525050565b60006020820190506109f960008301846109d5565b92915050565b610a0881610860565b82525050565b6000602082019050610a2360008301846109ff565b92915050565b610a328161090f565b8114610a3d57600080fd5b50565b600081359050610a4f81610a29565b92915050565b600060208284031215610a6b57610a6a61085b565b5b6000610a7984828501610a40565b91505092915050565b7f4e487b7100000000000000000000000000000000000000000000000000000000600052601160045260246000fd5b6000610abc82610860565b9150610ac783610860565b9250828203905081811115610adf57610ade610a82565b5b92915050565b6000610af082610860565b9150610afb83610860565b9250828202610b0981610860565b91508282048414831517610b2057610b1f610a82565b5b5092915050565b7f4e487b7100000000000000000000000000000000000000000000000000000000600052601260045260246000fd5b6000610b6182610860565b9150610b6c83610860565b925082610b7c57610b7b610b27565b5b828204905092915050565b6000610b9282610860565b9150610b9d83610860565b9250828201905080821115610bb557610bb4610a82565b5b92915050565b6000604082019050610bd060008301856109ff565b610bdd60208301846109ff565b939250505056fea264697066735822122037a8ca8d9906d659f7b4a9f4ac5f3bf0a828f182fcf4dab9fae2b1a57e8bd5f964736f6c63430008130033",
  "linkReferences": {},
  "deployedLinkReferences": {}
}